{
  "contractName": "StudentFeedbackSystem",
  "abi": [
    {
      "anonymous": false,
      "inputs": [
        {
          "indexed": true,
          "internalType": "address",
          "name": "account",
          "type": "address"
        }
      ],
      "name": "StudentAdded",
      "type": "event"
    },
    {
      "anonymous": false,
      "inputs": [
        {
          "indexed": true,
          "internalType": "address",
          "name": "account",
          "type": "address"
        }
      ],
      "name": "StudentRemoved",
      "type": "event"
    },
    {
      "anonymous": false,
      "inputs": [
        {
          "indexed": true,
          "internalType": "address",
          "name": "account",
          "type": "address"
        }
      ],
      "name": "TeacherAdded",
      "type": "event"
    },
    {
      "anonymous": false,
      "inputs": [
        {
          "indexed": true,
          "internalType": "address",
          "name": "account",
          "type": "address"
        }
      ],
      "name": "TeacherRemoved",
      "type": "event"
    },
    {
      "anonymous": false,
      "inputs": [
        {
          "indexed": true,
          "internalType": "address",
          "name": "oldOwner",
          "type": "address"
        },
        {
          "indexed": true,
          "internalType": "address",
          "name": "newOwner",
          "type": "address"
        }
      ],
      "name": "TransferOwnership",
      "type": "event"
    },
    {
      "constant": false,
      "inputs": [
        {
          "internalType": "address",
          "name": "account",
          "type": "address"
        }
      ],
      "name": "addStudent",
      "outputs": [],
      "payable": false,
      "stateMutability": "nonpayable",
      "type": "function"
    },
    {
      "constant": true,
      "inputs": [],
      "name": "isOwner",
      "outputs": [
        {
          "internalType": "bool",
          "name": "",
          "type": "bool"
        }
      ],
      "payable": false,
      "stateMutability": "view",
      "type": "function"
    },
    {
      "constant": true,
      "inputs": [
        {
          "internalType": "address",
          "name": "account",
          "type": "address"
        }
      ],
      "name": "isStudent",
      "outputs": [
        {
          "internalType": "bool",
          "name": "",
          "type": "bool"
        }
      ],
      "payable": false,
      "stateMutability": "view",
      "type": "function"
    },
    {
      "constant": true,
      "inputs": [
        {
          "internalType": "address",
          "name": "account",
          "type": "address"
        }
      ],
      "name": "isTeacher",
      "outputs": [
        {
          "internalType": "bool",
          "name": "",
          "type": "bool"
        }
      ],
      "payable": false,
      "stateMutability": "view",
      "type": "function"
    },
    {
      "constant": true,
      "inputs": [],
      "name": "ownerLookup",
      "outputs": [
        {
          "internalType": "address",
          "name": "",
          "type": "address"
        }
      ],
      "payable": false,
      "stateMutability": "view",
      "type": "function"
    },
    {
      "constant": false,
      "inputs": [],
      "name": "renounceOwnership",
      "outputs": [],
      "payable": false,
      "stateMutability": "nonpayable",
      "type": "function"
    },
    {
      "constant": false,
      "inputs": [],
      "name": "renounceStudent",
      "outputs": [],
      "payable": false,
      "stateMutability": "nonpayable",
      "type": "function"
    },
    {
      "constant": false,
      "inputs": [
        {
          "internalType": "address",
          "name": "account",
          "type": "address"
        }
      ],
      "name": "renounceTeacher",
      "outputs": [],
      "payable": false,
      "stateMutability": "nonpayable",
      "type": "function"
    },
    {
      "constant": true,
      "inputs": [
        {
          "internalType": "uint256",
          "name": "",
          "type": "uint256"
        }
      ],
      "name": "reviews",
      "outputs": [
        {
          "internalType": "uint256",
          "name": "rating",
          "type": "uint256"
        },
        {
          "internalType": "string",
          "name": "comments",
          "type": "string"
        }
      ],
      "payable": false,
      "stateMutability": "view",
      "type": "function"
    },
    {
      "constant": false,
      "inputs": [
        {
          "internalType": "address",
          "name": "newOwner",
          "type": "address"
        }
      ],
      "name": "transferOwnership",
      "outputs": [],
      "payable": false,
      "stateMutability": "nonpayable",
      "type": "function"
    },
    {
      "constant": false,
      "inputs": [
        {
          "internalType": "address",
          "name": "account",
          "type": "address"
        }
      ],
      "name": "addTeacher",
      "outputs": [],
      "payable": false,
      "stateMutability": "nonpayable",
      "type": "function"
    },
    {
      "constant": false,
      "inputs": [
        {
          "internalType": "string",
          "name": "_teacherCode",
          "type": "string"
        },
        {
          "internalType": "string[]",
          "name": "_subjectCodes",
          "type": "string[]"
        },
        {
          "internalType": "uint256[]",
          "name": "_studentCount",
          "type": "uint256[]"
        }
      ],
      "name": "addTeacher",
      "outputs": [],
      "payable": false,
      "stateMutability": "nonpayable",
      "type": "function"
    },
    {
      "constant": true,
      "inputs": [
        {
          "internalType": "string",
          "name": "_teacherCode",
          "type": "string"
        }
      ],
      "name": "getTeacher",
      "outputs": [
        {
          "internalType": "string",
          "name": "code",
          "type": "string"
        },
        {
          "internalType": "string[]",
          "name": "subjectCodes",
          "type": "string[]"
        }
      ],
      "payable": false,
      "stateMutability": "view",
      "type": "function"
    },
    {
      "constant": true,
      "inputs": [
        {
          "internalType": "string",
          "name": "_teacherCode",
          "type": "string"
        },
        {
          "internalType": "string",
          "name": "_subjectCode",
          "type": "string"
        }
      ],
      "name": "getPasswords",
      "outputs": [
        {
          "internalType": "uint256[]",
          "name": "passwords",
          "type": "uint256[]"
        }
      ],
      "payable": false,
      "stateMutability": "view",
      "type": "function"
    },
    {
      "constant": true,
      "inputs": [
        {
          "internalType": "string",
          "name": "_teacherCode",
          "type": "string"
        },
        {
          "internalType": "string",
          "name": "_subjectCode",
          "type": "string"
        }
      ],
      "name": "getReview",
      "outputs": [
        {
          "components": [
            {
              "internalType": "uint256",
              "name": "rating",
              "type": "uint256"
            },
            {
              "internalType": "string",
              "name": "comments",
              "type": "string"
            }
          ],
          "internalType": "struct StudentFeedbackSystem.Review[]",
          "name": "",
          "type": "tuple[]"
        }
      ],
      "payable": false,
      "stateMutability": "view",
      "type": "function"
    },
    {
      "constant": false,
      "inputs": [
        {
          "internalType": "string",
          "name": "_teacherCode",
          "type": "string"
        },
        {
          "internalType": "string",
          "name": "_subjectCode",
          "type": "string"
        },
        {
          "internalType": "uint256",
          "name": "_rating",
          "type": "uint256"
        },
        {
          "internalType": "string",
          "name": "_comments",
          "type": "string"
        },
        {
          "internalType": "uint256",
          "name": "_password",
          "type": "uint256"
        }
      ],
      "name": "addReview",
      "outputs": [],
      "payable": false,
      "stateMutability": "nonpayable",
      "type": "function"
    }
  ],
  "bytecode": "0x6080604052336000806101000a81548173ffffffffffffffffffffffffffffffffffffffff021916908373ffffffffffffffffffffffffffffffffffffffff1602179055506000809054906101000a900473ffffffffffffffffffffffffffffffffffffffff1673ffffffffffffffffffffffffffffffffffffffff16600073ffffffffffffffffffffffffffffffffffffffff167f5c486528ec3e3f0ea91181cff8116f02bfa350e03b8b6f12e00765adbb5af85c60405160405180910390a3620000d133620000e860201b60201c565b620000e2336200014960201b60201c565b620002f3565b62000103816001620001aa60201b6200117e1790919060201c565b8073ffffffffffffffffffffffffffffffffffffffff167f04e1c63d2b2fafca3496ea9c3f23b77835b9a91f5d74802ced76b7f929b3265e60405160405180910390a250565b62000164816002620001aa60201b6200117e1790919060201c565b8073ffffffffffffffffffffffffffffffffffffffff167f0e247955258b6547e8cccc2c23a51bde067ec81cbc12b12ee10ee47f2e333a4b60405160405180910390a250565b600073ffffffffffffffffffffffffffffffffffffffff168173ffffffffffffffffffffffffffffffffffffffff161415620001e557600080fd5b620001f782826200026060201b60201c565b156200020257600080fd5b60018260000160008373ffffffffffffffffffffffffffffffffffffffff1673ffffffffffffffffffffffffffffffffffffffff16815260200190815260200160002060006101000a81548160ff0219169083151502179055505050565b60008073ffffffffffffffffffffffffffffffffffffffff168273ffffffffffffffffffffffffffffffffffffffff1614156200029c57600080fd5b8260000160008373ffffffffffffffffffffffffffffffffffffffff1673ffffffffffffffffffffffffffffffffffffffff16815260200190815260200160002060009054906101000a900460ff16905092915050565b61220680620003036000396000f3fe608060405234801561001057600080fd5b50600436106101005760003560e01c806395a6ee3e11610097578063bd06ea1911610066578063bd06ea1914610298578063e02e64ea146102b4578063e83ddcea146102d2578063f2fde38b1461030357610100565b806395a6ee3e146102005780639a3e36e41461021c578063a0f2de201461024c578063aec37eb31461026857610100565b8063715018a6116100d3578063715018a61461018c57806382f7d392146101965780638f32d59b146101c65780639491eb37146101e457610100565b8063045f94e31461010557806321128167146101355780633bc6e3091461016657806340e745ff14610182575b600080fd5b61011f600480360361011a91908101906117e5565b61031f565b60405161012c9190611dc4565b60405180910390f35b61014f600480360361014a919081019061170d565b610494565b60405161015d929190611e23565b60405180910390f35b610180600480360361017b91908101906116e4565b610676565b005b61018a610694565b005b61019461069f565b005b6101b060048036036101ab91908101906116e4565b61076f565b6040516101bd9190611e08565b60405180910390f35b6101ce61078c565b6040516101db9190611e08565b60405180910390f35b6101fe60048036036101f99190810190611851565b6107e3565b005b61021a6004803603610215919081019061174e565b610a8c565b005b610236600480360361023191908101906117e5565b610c74565b6040516102439190611de6565b60405180910390f35b610266600480360361026191908101906116e4565b610d36565b005b610282600480360361027d91908101906116e4565b610d42565b60405161028f9190611e08565b60405180910390f35b6102b260048036036102ad91908101906116e4565b610d5f565b005b6102bc610d7d565b6040516102c99190611da9565b60405180910390f35b6102ec60048036036102e79190810190611910565b610da6565b6040516102fa929190611eba565b60405180910390f35b61031d600480360361031891908101906116e4565b610e6f565b005b60606001151561032d61078c565b1515148061034757506001151561034333610d42565b1515145b1561048e5760048360405161035c9190611d92565b90815260200160405180910390206003018260405161037b9190611d92565b9081526020016040518091039020805480602002602001604051908101604052809291908181526020016000905b82821015610487578382906000526020600020906002020160405180604001604052908160008201548152602001600182018054600181600116156101000203166002900480601f01602080910402602001604051908101604052809291908181526020018280546001816001161561010002031660029004801561046f5780601f106104445761010080835404028352916020019161046f565b820191906000526020600020905b81548152906001019060200180831161045257829003601f168201915b505050505081525050815260200190600101906103a9565b5050505090505b92915050565b606080600115156104a361078c565b151514806104bd5750600115156104b933610d42565b1515145b156106715760006004846040516104d49190611d92565b908152602001604051809103902090508060000181600101818054600181600116156101000203166002900480601f0160208091040260200160405190810160405280929190818152602001828054600181600116156101000203166002900480156105815780601f1061055657610100808354040283529160200191610581565b820191906000526020600020905b81548152906001019060200180831161056457829003601f168201915b5050505050915080805480602002602001604051908101604052809291908181526020016000905b82821015610665578382906000526020600020018054600181600116156101000203166002900480601f0160208091040260200160405190810160405280929190818152602001828054600181600116156101000203166002900480156106515780601f1061062657610100808354040283529160200191610651565b820191906000526020600020905b81548152906001019060200180831161063457829003601f168201915b5050505050815260200190600101906105a9565b50505050905092509250505b915091565b61067f33610d42565b61068857600080fd5b61069181610e8c565b50565b61069d33610ee6565b565b6106a761078c565b6106b057600080fd5b600073ffffffffffffffffffffffffffffffffffffffff166000809054906101000a900473ffffffffffffffffffffffffffffffffffffffff1673ffffffffffffffffffffffffffffffffffffffff167f5c486528ec3e3f0ea91181cff8116f02bfa350e03b8b6f12e00765adbb5af85c60405160405180910390a360008060006101000a81548173ffffffffffffffffffffffffffffffffffffffff021916908373ffffffffffffffffffffffffffffffffffffffff160217905550565b6000610785826002610f4090919063ffffffff16565b9050919050565b60008060009054906101000a900473ffffffffffffffffffffffffffffffffffffffff1673ffffffffffffffffffffffffffffffffffffffff163373ffffffffffffffffffffffffffffffffffffffff1614905090565b6107ec3361076f565b6107f557600080fd5b60606004866040516108079190611d92565b9081526020016040518091039020600201856040516108269190611d92565b908152602001604051809103902080548060200260200160405190810160405280929190818152602001828054801561087e57602002820191906000526020600020905b81548152602001906001019080831161086a575b5050505050905060008151116108c9576040517f08c379a00000000000000000000000000000000000000000000000000000000081526004016108c090611e7a565b60405180910390fd5b6005600083815260200190815260200160002060009054906101000a900460ff161561092a576040517f08c379a000000000000000000000000000000000000000000000000000000000815260040161092190611e5a565b60405180910390fd5b600080905060008090505b825181101561096f578383828151811061094b57fe5b60200260200101511415610962576001915061096f565b8080600101915050610935565b50806109b0576040517f08c379a00000000000000000000000000000000000000000000000000000000081526004016109a790611e9a565b60405180910390fd5b60016005600085815260200190815260200160002060006101000a81548160ff0219169083151502179055506004876040516109ec9190611d92565b908152602001604051809103902060030186604051610a0b9190611d92565b908152602001604051809103902060405180604001604052808781526020018681525090806001815401808255809150509060018203906000526020600020906002020160009091929091909150600082015181600001556020820151816001019080519060200190610a7f9291906112d5565b5050505050505050505050565b610a9461078c565b610a9d57600080fd5b82600484604051610aae9190611d92565b90815260200160405180910390206000019080519060200190610ad2929190611355565b5081600484604051610ae49190611d92565b90815260200160405180910390206001019080519060200190610b089291906113d5565b5060008090505b8251811015610c6e576060828281518110610b2657fe5b6020026020010151604051908082528060200260200182016040528015610b5c5781602001602082028038833980820191505090505b50905060008090505b838381518110610b7157fe5b6020026020010151811015610bfa576000620186a03388888781518110610b9457fe5b602002602001015185604051602001610bb09493929190611d35565b6040516020818303038152906040528051906020012060001c81610bd057fe5b06905080838381518110610be057fe5b602002602001018181525050508080600101915050610b65565b5080600486604051610c0c9190611d92565b9081526020016040518091039020600201858481518110610c2957fe5b6020026020010151604051610c3e9190611d7b565b90815260200160405180910390209080519060200190610c5f929190611435565b50508080600101915050610b0f565b50505050565b606060011515610c8261078c565b15151480610c9c575060011515610c9833610d42565b1515145b15610d3057600483604051610cb19190611d92565b908152602001604051809103902060020182604051610cd09190611d92565b9081526020016040518091039020805480602002602001604051908101604052809291908181526020018280548015610d2857602002820191906000526020600020905b815481526020019060010190808311610d14575b505050505090505b92915050565b610d3f81610fd2565b50565b6000610d58826001610f4090919063ffffffff16565b9050919050565b610d683361076f565b610d7157600080fd5b610d7a8161102c565b50565b60008060009054906101000a900473ffffffffffffffffffffffffffffffffffffffff16905090565b60038181548110610db357fe5b9060005260206000209060020201600091509050806000015490806001018054600181600116156101000203166002900480601f016020809104026020016040519081016040528092919081815260200182805460018160011615610100020316600290048015610e655780601f10610e3a57610100808354040283529160200191610e65565b820191906000526020600020905b815481529060010190602001808311610e4857829003601f168201915b5050505050905082565b610e7761078c565b610e8057600080fd5b610e8981611086565b50565b610ea081600161117e90919063ffffffff16565b8073ffffffffffffffffffffffffffffffffffffffff167f04e1c63d2b2fafca3496ea9c3f23b77835b9a91f5d74802ced76b7f929b3265e60405160405180910390a250565b610efa81600261122a90919063ffffffff16565b8073ffffffffffffffffffffffffffffffffffffffff167f090f8580c9984c072634e9bba0570c10e0478d3a652adb16d8c73528a2ab513c60405160405180910390a250565b60008073ffffffffffffffffffffffffffffffffffffffff168273ffffffffffffffffffffffffffffffffffffffff161415610f7b57600080fd5b8260000160008373ffffffffffffffffffffffffffffffffffffffff1673ffffffffffffffffffffffffffffffffffffffff16815260200190815260200160002060009054906101000a900460ff16905092915050565b610fe681600161122a90919063ffffffff16565b8073ffffffffffffffffffffffffffffffffffffffff167f024a5dd50126818a1d488f90df37ad02592196a4ea744aff479981813929773460405160405180910390a250565b61104081600261117e90919063ffffffff16565b8073ffffffffffffffffffffffffffffffffffffffff167f0e247955258b6547e8cccc2c23a51bde067ec81cbc12b12ee10ee47f2e333a4b60405160405180910390a250565b600073ffffffffffffffffffffffffffffffffffffffff168173ffffffffffffffffffffffffffffffffffffffff1614156110c057600080fd5b8073ffffffffffffffffffffffffffffffffffffffff166000809054906101000a900473ffffffffffffffffffffffffffffffffffffffff1673ffffffffffffffffffffffffffffffffffffffff167f5c486528ec3e3f0ea91181cff8116f02bfa350e03b8b6f12e00765adbb5af85c60405160405180910390a3806000806101000a81548173ffffffffffffffffffffffffffffffffffffffff021916908373ffffffffffffffffffffffffffffffffffffffff16021790555050565b600073ffffffffffffffffffffffffffffffffffffffff168173ffffffffffffffffffffffffffffffffffffffff1614156111b857600080fd5b6111c28282610f40565b156111cc57600080fd5b60018260000160008373ffffffffffffffffffffffffffffffffffffffff1673ffffffffffffffffffffffffffffffffffffffff16815260200190815260200160002060006101000a81548160ff0219169083151502179055505050565b600073ffffffffffffffffffffffffffffffffffffffff168173ffffffffffffffffffffffffffffffffffffffff16141561126457600080fd5b61126e8282610f40565b61127757600080fd5b60008260000160008373ffffffffffffffffffffffffffffffffffffffff1673ffffffffffffffffffffffffffffffffffffffff16815260200190815260200160002060006101000a81548160ff0219169083151502179055505050565b828054600181600116156101000203166002900490600052602060002090601f016020900481019282601f1061131657805160ff1916838001178555611344565b82800160010185558215611344579182015b82811115611343578251825591602001919060010190611328565b5b5090506113519190611482565b5090565b828054600181600116156101000203166002900490600052602060002090601f016020900481019282601f1061139657805160ff19168380011785556113c4565b828001600101855582156113c4579182015b828111156113c35782518255916020019190600101906113a8565b5b5090506113d19190611482565b5090565b828054828255906000526020600020908101928215611424579160200282015b828111156114235782518290805190602001906114139291906112d5565b50916020019190600101906113f5565b5b50905061143191906114a7565b5090565b828054828255906000526020600020908101928215611471579160200282015b82811115611470578251825591602001919060010190611455565b5b50905061147e9190611482565b5090565b6114a491905b808211156114a0576000816000905550600101611488565b5090565b90565b6114d091905b808211156114cc57600081816114c391906114d3565b506001016114ad565b5090565b90565b50805460018160011615610100020316600290046000825580601f106114f95750611518565b601f0160209004906000526020600020908101906115179190611482565b5b50565b60008135905061152a81612195565b92915050565b600082601f83011261154157600080fd5b813561155461154f82611f17565b611eea565b9150818183526020840193506020810190508360005b8381101561159a57813586016115808882611627565b84526020840193506020830192505060018101905061156a565b5050505092915050565b600082601f8301126115b557600080fd5b81356115c86115c382611f3f565b611eea565b915081818352602084019350602081019050838560208402820111156115ed57600080fd5b60005b8381101561161d578161160388826116cf565b8452602084019350602083019250506001810190506115f0565b5050505092915050565b600082601f83011261163857600080fd5b813561164b61164682611f67565b611eea565b9150808252602083016020830185838301111561166757600080fd5b611672838284612107565b50505092915050565b600082601f83011261168c57600080fd5b813561169f61169a82611f93565b611eea565b915080825260208301602083018583830111156116bb57600080fd5b6116c6838284612107565b50505092915050565b6000813590506116de816121ac565b92915050565b6000602082840312156116f657600080fd5b60006117048482850161151b565b91505092915050565b60006020828403121561171f57600080fd5b600082013567ffffffffffffffff81111561173957600080fd5b6117458482850161167b565b91505092915050565b60008060006060848603121561176357600080fd5b600084013567ffffffffffffffff81111561177d57600080fd5b6117898682870161167b565b935050602084013567ffffffffffffffff8111156117a657600080fd5b6117b286828701611530565b925050604084013567ffffffffffffffff8111156117cf57600080fd5b6117db868287016115a4565b9150509250925092565b600080604083850312156117f857600080fd5b600083013567ffffffffffffffff81111561181257600080fd5b61181e8582860161167b565b925050602083013567ffffffffffffffff81111561183b57600080fd5b6118478582860161167b565b9150509250929050565b600080600080600060a0868803121561186957600080fd5b600086013567ffffffffffffffff81111561188357600080fd5b61188f8882890161167b565b955050602086013567ffffffffffffffff8111156118ac57600080fd5b6118b88882890161167b565b94505060406118c9888289016116cf565b935050606086013567ffffffffffffffff8111156118e657600080fd5b6118f28882890161167b565b9250506080611903888289016116cf565b9150509295509295909350565b60006020828403121561192257600080fd5b6000611930848285016116cf565b91505092915050565b60006119458383611b60565b905092915050565b60006119598383611cc3565b905092915050565b600061196d8383611d00565b60208301905092915050565b61198a611985826120bf565b612149565b82525050565b611999816120ad565b82525050565b60006119aa82611fef565b6119b4818561204d565b9350836020820285016119c685611fbf565b8060005b85811015611a0257848403895281516119e38582611939565b94506119ee83612026565b925060208a019950506001810190506119ca565b50829750879550505050505092915050565b6000611a1f82611ffa565b611a29818561205e565b935083602082028501611a3b85611fcf565b8060005b85811015611a775784840389528151611a58858261194d565b9450611a6383612033565b925060208a01995050600181019050611a3f565b50829750879550505050505092915050565b6000611a9482612005565b611a9e818561206f565b9350611aa983611fdf565b8060005b83811015611ada578151611ac18882611961565b9750611acc83612040565b925050600181019050611aad565b5085935050505092915050565b611af0816120d1565b82525050565b6000611b018261201b565b611b0b8185612091565b9350611b1b818560208601612116565b611b2481612177565b840191505092915050565b6000611b3a8261201b565b611b4481856120a2565b9350611b54818560208601612116565b80840191505092915050565b6000611b6b82612010565b611b758185612080565b9350611b85818560208601612116565b611b8e81612177565b840191505092915050565b6000611ba482612010565b611bae8185612091565b9350611bbe818560208601612116565b611bc781612177565b840191505092915050565b6000611bdd82612010565b611be781856120a2565b9350611bf7818560208601612116565b80840191505092915050565b6000611c10601e83612091565b91507f50617373776f72642068617320616c7265616479206265656e207573656400006000830152602082019050919050565b6000611c50601f83612091565b91507f496e76616c69642074656163686572206f72207375626a65637420636f6465006000830152602082019050919050565b6000611c90601083612091565b91507f496e76616c69642070617373776f7264000000000000000000000000000000006000830152602082019050919050565b6000604083016000830151611cdb6000860182611d00565b5060208301518482036020860152611cf38282611b60565b9150508091505092915050565b611d09816120fd565b82525050565b611d18816120fd565b82525050565b611d2f611d2a826120fd565b61216d565b82525050565b6000611d418287611979565b601482019150611d518286611b2f565b9150611d5d8285611bd2565b9150611d698284611d1e565b60208201915081905095945050505050565b6000611d878284611bd2565b915081905092915050565b6000611d9e8284611b2f565b915081905092915050565b6000602082019050611dbe6000830184611990565b92915050565b60006020820190508181036000830152611dde8184611a14565b905092915050565b60006020820190508181036000830152611e008184611a89565b905092915050565b6000602082019050611e1d6000830184611ae7565b92915050565b60006040820190508181036000830152611e3d8185611af6565b90508181036020830152611e51818461199f565b90509392505050565b60006020820190508181036000830152611e7381611c03565b9050919050565b60006020820190508181036000830152611e9381611c43565b9050919050565b60006020820190508181036000830152611eb381611c83565b9050919050565b6000604082019050611ecf6000830185611d0f565b8181036020830152611ee18184611b99565b90509392505050565b6000604051905081810181811067ffffffffffffffff82111715611f0d57600080fd5b8060405250919050565b600067ffffffffffffffff821115611f2e57600080fd5b602082029050602081019050919050565b600067ffffffffffffffff821115611f5657600080fd5b602082029050602081019050919050565b600067ffffffffffffffff821115611f7e57600080fd5b601f19601f8301169050602081019050919050565b600067ffffffffffffffff821115611faa57600080fd5b601f19601f8301169050602081019050919050565b6000819050602082019050919050565b6000819050602082019050919050565b6000819050602082019050919050565b600081519050919050565b600081519050919050565b600081519050919050565b600081519050919050565b600081519050919050565b6000602082019050919050565b6000602082019050919050565b6000602082019050919050565b600082825260208201905092915050565b600082825260208201905092915050565b600082825260208201905092915050565b600082825260208201905092915050565b600082825260208201905092915050565b600081905092915050565b60006120b8826120dd565b9050919050565b60006120ca826120dd565b9050919050565b60008115159050919050565b600073ffffffffffffffffffffffffffffffffffffffff82169050919050565b6000819050919050565b82818337600083830152505050565b60005b83811015612134578082015181840152602081019050612119565b83811115612143576000848401525b50505050565b60006121548261215b565b9050919050565b600061216682612188565b9050919050565b6000819050919050565b6000601f19601f8301169050919050565b60008160601b9050919050565b61219e816120ad565b81146121a957600080fd5b50565b6121b5816120fd565b81146121c057600080fd5b5056fea365627a7a72315820956a05c4152bb4682d70263ea043cd3fe793967ef48604f2219fafa6355395ff6c6578706572696d656e74616cf564736f6c63430005100040",
  "source": "// SPDX-License-Identifier: GPL-3.0\r\npragma solidity >=0.4.24;\r\npragma experimental ABIEncoderV2;\r\n// inherited contracts\r\nimport './Ownable.sol';\r\nimport './TeacherRole.sol';\r\nimport './StudentRole.sol';\r\n\r\n// Define a contract 'Student Feedback Smart Contract'\r\ncontract StudentFeedbackSystem is Ownable,TeacherRole,StudentRole{\r\n    struct TeacherData {\r\n        string code;\r\n        string[] subjectCodes;\r\n        mapping(string => uint[]) passwordMap;\r\n        mapping(string => Review[]) reviewMap;\r\n    }\r\n\r\n    struct Review {\r\n        uint rating;\r\n        string comments;\r\n    }\r\n\r\n    Review[] public reviews;\r\n\r\n    mapping(string => TeacherData) teachers;\r\n    mapping(uint => bool) usedPasswords;\r\n\r\n\r\n    modifier checkEitherOwnerOrTeacher() {\r\n      if ((isOwner() == true)|| (isTeacher(msg.sender)==true)) {\r\n         _;\r\n      }\r\n   }\r\n\r\n    function addTeacher(string memory _teacherCode, string[] memory _subjectCodes, uint[] memory _studentCount) public onlyOwner(){\r\n\r\n        teachers[_teacherCode].code = _teacherCode;\r\n        teachers[_teacherCode].subjectCodes = _subjectCodes;\r\n            \r\n        for (uint i = 0; i < _subjectCodes.length; i++) {\r\n            uint[] memory passwords = new uint[](_studentCount[i]);\r\n            for (uint j = 0; j < _studentCount[i]; j++) {\r\n                uint password = uint(keccak256(abi.encodePacked(msg.sender, _teacherCode, _subjectCodes[i],j)))%100000;\r\n                passwords[j] = password;\r\n            }\r\n            teachers[_teacherCode].passwordMap[_subjectCodes[i]] = passwords;\r\n        }\r\n        \r\n    }\r\n\r\n    function getTeacher(string memory _teacherCode) public checkEitherOwnerOrTeacher() view returns (string memory code, string[] memory subjectCodes) {\r\n        TeacherData storage teacher = teachers[_teacherCode];\r\n        return (teacher.code, teacher.subjectCodes);\r\n    }\r\n    \r\n    function getPasswords(string memory _teacherCode, string memory _subjectCode) public checkEitherOwnerOrTeacher() view returns (uint[] memory passwords) {\r\n        return teachers[_teacherCode].passwordMap[_subjectCode];\r\n    }\r\n\r\n    function getReview(string memory _teacherCode, string memory _subjectCode) public checkEitherOwnerOrTeacher() view returns (Review[] memory) {\r\n        return (teachers[_teacherCode].reviewMap[_subjectCode]);\r\n    }\r\n\r\n    function addReview(string memory _teacherCode, string memory _subjectCode, uint _rating, string memory _comments, uint _password) public onlyStudent(){\r\n        uint[] memory passwords = teachers[_teacherCode].passwordMap[_subjectCode];\r\n        require(passwords.length > 0, \"Invalid teacher or subject code\");\r\n        require(!usedPasswords[_password], \"Password has already been used\");\r\n        bool passwordMatch = false;\r\n        for (uint i = 0; i < passwords.length; i++) {\r\n            if (passwords[i] == _password) {\r\n                passwordMatch = true;\r\n                break;\r\n            }\r\n        }\r\n        require(passwordMatch, \"Invalid password\");\r\n        usedPasswords[_password] = true;\r\n        teachers[_teacherCode].reviewMap[_subjectCode].push(Review(_rating, _comments));\r\n    }\r\n\r\n}",
  "sourcePath": "D:\\StudentFeedback\\contracts\\StudentFeedbackSystem.sol",
  "compiler": {
    "name": "solc",
    "version": "0.5.16+commit.9c3226ce.Emscripten.clang"
  },
  "schemaVersion": "3.4.4",
  "updatedAt": "2023-06-03T16:05:50.973Z",
  "networkType": "ethereum",
  "devdoc": {
    "methods": {}
  },
  "userdoc": {
    "methods": {
      "isOwner()": {
        "notice": "Check if the calling address is the owner of the contract"
      },
      "ownerLookup()": {
        "notice": "Look up the address of the owner"
      },
      "renounceOwnership()": {
        "notice": "Define a function to renounce ownerhip"
      },
      "transferOwnership(address)": {
        "notice": "Define a public function to transfer ownership"
      }
    }
  }
}