{
  "contractName": "StudentRole",
  "abi": [
    {
      "inputs": [],
      "payable": false,
      "stateMutability": "nonpayable",
      "type": "constructor"
    },
    {
      "anonymous": false,
      "inputs": [
        {
          "indexed": true,
          "internalType": "address",
          "name": "account",
          "type": "address"
        }
      ],
      "name": "StudentAdded",
      "type": "event"
    },
    {
      "anonymous": false,
      "inputs": [
        {
          "indexed": true,
          "internalType": "address",
          "name": "account",
          "type": "address"
        }
      ],
      "name": "StudentRemoved",
      "type": "event"
    },
    {
      "constant": true,
      "inputs": [
        {
          "internalType": "address",
          "name": "account",
          "type": "address"
        }
      ],
      "name": "isStudent",
      "outputs": [
        {
          "internalType": "bool",
          "name": "",
          "type": "bool"
        }
      ],
      "payable": false,
      "stateMutability": "view",
      "type": "function"
    },
    {
      "constant": false,
      "inputs": [
        {
          "internalType": "address",
          "name": "account",
          "type": "address"
        }
      ],
      "name": "addStudent",
      "outputs": [],
      "payable": false,
      "stateMutability": "nonpayable",
      "type": "function"
    },
    {
      "constant": false,
      "inputs": [],
      "name": "renounceStudent",
      "outputs": [],
      "payable": false,
      "stateMutability": "nonpayable",
      "type": "function"
    }
  ],
  "bytecode": "0x608060405234801561001057600080fd5b506100203361002560201b60201c565b6101c7565b61003d81600061008360201b6103271790919060201c565b8073ffffffffffffffffffffffffffffffffffffffff167f0e247955258b6547e8cccc2c23a51bde067ec81cbc12b12ee10ee47f2e333a4b60405160405180910390a250565b600073ffffffffffffffffffffffffffffffffffffffff168173ffffffffffffffffffffffffffffffffffffffff1614156100bd57600080fd5b6100cd828261013560201b60201c565b156100d757600080fd5b60018260000160008373ffffffffffffffffffffffffffffffffffffffff1673ffffffffffffffffffffffffffffffffffffffff16815260200190815260200160002060006101000a81548160ff0219169083151502179055505050565b60008073ffffffffffffffffffffffffffffffffffffffff168273ffffffffffffffffffffffffffffffffffffffff16141561017057600080fd5b8260000160008373ffffffffffffffffffffffffffffffffffffffff1673ffffffffffffffffffffffffffffffffffffffff16815260200190815260200160002060009054906101000a900460ff16905092915050565b610408806101d66000396000f3fe608060405234801561001057600080fd5b50600436106100415760003560e01c806340e745ff1461004657806382f7d39214610050578063bd06ea19146100ac575b600080fd5b61004e6100f0565b005b6100926004803603602081101561006657600080fd5b81019080803573ffffffffffffffffffffffffffffffffffffffff1690602001909291905050506100fb565b604051808215151515815260200191505060405180910390f35b6100ee600480360360208110156100c257600080fd5b81019080803573ffffffffffffffffffffffffffffffffffffffff169060200190929190505050610118565b005b6100f933610136565b565b600061011182600061019090919063ffffffff16565b9050919050565b610121336100fb565b61012a57600080fd5b61013381610222565b50565b61014a81600061027c90919063ffffffff16565b8073ffffffffffffffffffffffffffffffffffffffff167f090f8580c9984c072634e9bba0570c10e0478d3a652adb16d8c73528a2ab513c60405160405180910390a250565b60008073ffffffffffffffffffffffffffffffffffffffff168273ffffffffffffffffffffffffffffffffffffffff1614156101cb57600080fd5b8260000160008373ffffffffffffffffffffffffffffffffffffffff1673ffffffffffffffffffffffffffffffffffffffff16815260200190815260200160002060009054906101000a900460ff16905092915050565b61023681600061032790919063ffffffff16565b8073ffffffffffffffffffffffffffffffffffffffff167f0e247955258b6547e8cccc2c23a51bde067ec81cbc12b12ee10ee47f2e333a4b60405160405180910390a250565b600073ffffffffffffffffffffffffffffffffffffffff168173ffffffffffffffffffffffffffffffffffffffff1614156102b657600080fd5b6102c08282610190565b6102c957600080fd5b60008260000160008373ffffffffffffffffffffffffffffffffffffffff1673ffffffffffffffffffffffffffffffffffffffff16815260200190815260200160002060006101000a81548160ff0219169083151502179055505050565b600073ffffffffffffffffffffffffffffffffffffffff168173ffffffffffffffffffffffffffffffffffffffff16141561036157600080fd5b61036b8282610190565b1561037557600080fd5b60018260000160008373ffffffffffffffffffffffffffffffffffffffff1673ffffffffffffffffffffffffffffffffffffffff16815260200190815260200160002060006101000a81548160ff021916908315150217905550505056fea265627a7a72315820487f1ea2755cf1fa365af55198bdb670058a6c6641c12917a1d9983f58314cde64736f6c63430005100032",
  "source": "// SPDX-License-Identifier: GPL-3.0\r\npragma solidity >=0.4.24;\r\n\r\n// Import the library 'Roles'\r\nimport \"./Roles.sol\";\r\n\r\n// Define a contract 'StudentRole' to manage this role - add, remove, check\r\ncontract StudentRole {\r\n  using Roles for Roles.Role;\r\n  // Define 2 events, one for Adding, and other for Removing\r\n  event StudentAdded(address indexed account);\r\n  event StudentRemoved(address indexed account);\r\n  // Define a struct 'Students' by inheriting from 'Roles' library, struct Role\r\n  Roles.Role private Students;\r\n  // In the constructor make the address that deploys this contract the 1st Student\r\n  constructor() public{\r\n    _addStudent(msg.sender);\r\n  }\r\n\r\n  // Define a modifier that checks to see if msg.sender has the appropriate role\r\n  modifier onlyStudent() {\r\n    require(isStudent(msg.sender));\r\n    _;\r\n  }\r\n\r\n  // Define a function 'isStudent' to check this role\r\n  function isStudent(address account) public view returns (bool) {\r\n    return Students.has(account);\r\n  }\r\n\r\n  // Define a function 'addStudent' that adds this role\r\n  function addStudent(address account) public onlyStudent {\r\n    _addStudent(account);\r\n  }\r\n\r\n  // Define a function 'renounceStudent' to renounce this role\r\n  function renounceStudent() public {\r\n    _removeStudent(msg.sender);\r\n  }\r\n\r\n  // Define an internal function '_addStudent' to add this role, called by 'addStudent'\r\n  function _addStudent(address account) internal {\r\n    Students.add(account);\r\n    emit StudentAdded(account);\r\n  }\r\n\r\n  // Define an internal function '_removeStudent' to remove this role, called by 'removeStudent'\r\n  function _removeStudent(address account) internal {\r\n    Students.remove(account);\r\n    emit StudentRemoved(account);\r\n  }\r\n}",
  "sourcePath": "C:\\Users\\pragy\\Desktop\\Workspaces\\STABLE - StudentFeedbackDapp v1.0\\StudentFeedbackDapp\\StudentFeedback\\contracts\\StudentRole.sol",
  "compiler": {
    "name": "solc",
    "version": "0.5.16+commit.9c3226ce.Emscripten.clang"
  },
  "schemaVersion": "3.4.14",
  "updatedAt": "2023-06-17T09:34:19.622Z",
  "devdoc": {
    "methods": {}
  },
  "userdoc": {
    "methods": {}
  }
}