{
  "contractName": "TeacherRole",
  "abi": [
    {
      "inputs": [],
      "payable": false,
      "stateMutability": "nonpayable",
      "type": "constructor"
    },
    {
      "anonymous": false,
      "inputs": [
        {
          "indexed": true,
          "internalType": "address",
          "name": "account",
          "type": "address"
        }
      ],
      "name": "TeacherAdded",
      "type": "event"
    },
    {
      "anonymous": false,
      "inputs": [
        {
          "indexed": true,
          "internalType": "address",
          "name": "account",
          "type": "address"
        }
      ],
      "name": "TeacherRemoved",
      "type": "event"
    },
    {
      "constant": true,
      "inputs": [
        {
          "internalType": "address",
          "name": "account",
          "type": "address"
        }
      ],
      "name": "isTeacher",
      "outputs": [
        {
          "internalType": "bool",
          "name": "",
          "type": "bool"
        }
      ],
      "payable": false,
      "stateMutability": "view",
      "type": "function"
    },
    {
      "constant": false,
      "inputs": [
        {
          "internalType": "address",
          "name": "account",
          "type": "address"
        }
      ],
      "name": "addTeacher",
      "outputs": [],
      "payable": false,
      "stateMutability": "nonpayable",
      "type": "function"
    },
    {
      "constant": false,
      "inputs": [
        {
          "internalType": "address",
          "name": "account",
          "type": "address"
        }
      ],
      "name": "renounceTeacher",
      "outputs": [],
      "payable": false,
      "stateMutability": "nonpayable",
      "type": "function"
    }
  ],
  "bytecode": "0x608060405234801561001057600080fd5b506100203361002560201b60201c565b6101c7565b61003d81600061008360201b6102b71790919060201c565b8073ffffffffffffffffffffffffffffffffffffffff167f04e1c63d2b2fafca3496ea9c3f23b77835b9a91f5d74802ced76b7f929b3265e60405160405180910390a250565b600073ffffffffffffffffffffffffffffffffffffffff168173ffffffffffffffffffffffffffffffffffffffff1614156100bd57600080fd5b6100cd828261013560201b60201c565b156100d757600080fd5b60018260000160008373ffffffffffffffffffffffffffffffffffffffff1673ffffffffffffffffffffffffffffffffffffffff16815260200190815260200160002060006101000a81548160ff0219169083151502179055505050565b60008073ffffffffffffffffffffffffffffffffffffffff168273ffffffffffffffffffffffffffffffffffffffff16141561017057600080fd5b8260000160008373ffffffffffffffffffffffffffffffffffffffff1673ffffffffffffffffffffffffffffffffffffffff16815260200190815260200160002060009054906101000a900460ff16905092915050565b610443806101d66000396000f3fe608060405234801561001057600080fd5b50600436106100415760003560e01c80633bc6e30914610046578063a0f2de201461008a578063aec37eb3146100ce575b600080fd5b6100886004803603602081101561005c57600080fd5b81019080803573ffffffffffffffffffffffffffffffffffffffff16906020019092919050505061012a565b005b6100cc600480360360208110156100a057600080fd5b81019080803573ffffffffffffffffffffffffffffffffffffffff169060200190929190505050610148565b005b610110600480360360208110156100e457600080fd5b81019080803573ffffffffffffffffffffffffffffffffffffffff169060200190929190505050610154565b604051808215151515815260200191505060405180910390f35b61013333610154565b61013c57600080fd5b61014581610171565b50565b610151816101cb565b50565b600061016a82600061022590919063ffffffff16565b9050919050565b6101858160006102b790919063ffffffff16565b8073ffffffffffffffffffffffffffffffffffffffff167f04e1c63d2b2fafca3496ea9c3f23b77835b9a91f5d74802ced76b7f929b3265e60405160405180910390a250565b6101df81600061036390919063ffffffff16565b8073ffffffffffffffffffffffffffffffffffffffff167f024a5dd50126818a1d488f90df37ad02592196a4ea744aff479981813929773460405160405180910390a250565b60008073ffffffffffffffffffffffffffffffffffffffff168273ffffffffffffffffffffffffffffffffffffffff16141561026057600080fd5b8260000160008373ffffffffffffffffffffffffffffffffffffffff1673ffffffffffffffffffffffffffffffffffffffff16815260200190815260200160002060009054906101000a900460ff16905092915050565b600073ffffffffffffffffffffffffffffffffffffffff168173ffffffffffffffffffffffffffffffffffffffff1614156102f157600080fd5b6102fb8282610225565b1561030557600080fd5b60018260000160008373ffffffffffffffffffffffffffffffffffffffff1673ffffffffffffffffffffffffffffffffffffffff16815260200190815260200160002060006101000a81548160ff0219169083151502179055505050565b600073ffffffffffffffffffffffffffffffffffffffff168173ffffffffffffffffffffffffffffffffffffffff16141561039d57600080fd5b6103a78282610225565b6103b057600080fd5b60008260000160008373ffffffffffffffffffffffffffffffffffffffff1673ffffffffffffffffffffffffffffffffffffffff16815260200190815260200160002060006101000a81548160ff021916908315150217905550505056fea265627a7a7231582074e27358a2970603c8d2d15552112731cb1c34d48f599565b35aa0f71e493d3964736f6c63430005100032",
  "source": "// SPDX-License-Identifier: GPL-3.0\r\npragma solidity >=0.4.24;\r\n\r\n// Import the library 'Roles'\r\nimport \"./Roles.sol\";\r\n\r\n// Define a contract 'TeacherRole' to manage this role - add, remove, check\r\ncontract TeacherRole {\r\n  using Roles for Roles.Role;\r\n  // Define 2 events, one for Adding, and other for Removing\r\n  event TeacherAdded(address indexed account);\r\n  event TeacherRemoved(address indexed account);\r\n\r\n  // Define a struct 'Teachers' by inheriting from 'Roles' library, struct Role\r\n  Roles.Role private Teachers;\r\n  // In the constructor make the address that deploys this contract the 1st Teacher\r\n  constructor() public{\r\n    //_addConstructor(msg.sender);\r\n    _addTeacher(msg.sender);\r\n  }\r\n\r\n  // Define a modifier that checks to see if msg.sender has the appropriate role\r\n  modifier onlyTeacher() {\r\n    require(isTeacher(msg.sender));\r\n    _;\r\n  }\r\n\r\n  // Define a function 'isTeacher' to check this role\r\n  function isTeacher(address account) public view returns (bool) {\r\n    return Teachers.has(account);\r\n  }\r\n\r\n  // Define a function 'addTeacher' that adds this role\r\n  function addTeacher(address account) public onlyTeacher {\r\n    _addTeacher(account);\r\n  }\r\n\r\n  // Define a function 'renounceTeacher' to renounce this role\r\n  function renounceTeacher(address account) public {\r\n    _removeTeacher(account);\r\n  }\r\n\r\n  // Define an internal function '_addTeacher' to add this role, called by 'addTeacher'\r\n  function _addTeacher(address account) internal {\r\n    Teachers.add(account);\r\n    emit TeacherAdded(account);\r\n  }\r\n\r\n  // Define an internal function '_removeTeacher' to remove this role, called by 'removeTeacher'\r\n  function _removeTeacher(address account) internal {\r\n    Teachers.remove(account);\r\n    emit TeacherRemoved(account);\r\n  }\r\n}",
  "sourcePath": "C:\\Users\\pragy\\Desktop\\Workspaces\\StudentFeedbackDapp\\StudentFeedback\\contracts\\TeacherRole.sol",
  "compiler": {
    "name": "solc",
    "version": "0.5.16+commit.9c3226ce.Emscripten.clang"
  },
  "schemaVersion": "3.4.14",
  "updatedAt": "2023-06-13T09:36:26.895Z",
  "devdoc": {
    "methods": {}
  },
  "userdoc": {
    "methods": {}
  }
}